:100000000C9438000C9460000C9460000C94600018
:100010000C9460000C9460000C9460000C946000E0
:100020000C9460000C9460000C9460000C946000D0
:100030000C9460000C9460000C9460000C946000C0
:100040000C94830A0C9460000C9493070C94D607CC
:100050000C9460000C9460000C9460000C946000A0
:100060000C9460000C9460005E041D069408650406
:1000700011241FBECFEFD8E0DEBFCDBF11E0A0E05E
:10008000B1E0E6E8F8E102C005900D92AC34B107AA
:10009000D9F722E0ACE4B1E001C01D92A535B2076A
:1000A000E1F710E0C7E3D0E004C02197FE010E9411
:1000B000210CC433D107C9F70E9435090C94360CC2
:1000C0000C940000FC01858596850895A6E0B0E0BB
:1000D000ECE6F0E00C94FA0BAB011C821D821E8250
:1000E000DC01ED91FC910190F081E02D19821A82E2
:1000F0001B829E012F5F3F4FBE016C5F7F4F0995B2
:100100002696E2E00C94160C80E991E00895249A7A
:100110000895EF92FF920F931F93CF93DF93EC011B
:100120007C0182E0E80EF11C80915E0181114DC0DE
:100130008EE591E00E944809892B09F446C010928F
:10014000500110924F019FEF9093530190935401EF
:1001500090935501909356019093570190935801B5
:1001600081E08093590110925B0110925A01109224
:1001700052011092510180918F0190919001892B31
:1001800031F48DE491E09093900180938F01E091A0
:100190008D01F0918E01309721F08DE491E09583EF
:1001A00084838DE491E090938E0180938D01109271
:1001B0005D0110925C018AE091E090934E01809382
:1001C0004D018EE591E00E94510920E030E048E0C9
:1001D00050E0B7018DE491E00E94F70487E090E0E1
:1001E0000E9442098C0149E151E0B7010E9491044B
:1001F0001B8F0A8FCDB7DEB7E6E00C94120CCF93BD
:10020000DF93EC018A8D9B8DDC01ED91FC910480E4
:10021000F581E02D09958FEF809391016FEF81E9D2
:1002200091E00E949D058A8D9B8DDC01ED91FC91F2
:100230000680F781E02D09950E94FE0ADF91CF919B
:100240000895A0E0B0E0E7E2F1E00C94F10BFC01CE
:10025000C080D18025B12061B22E95B19F7E95B925
:1002600062858781062F081B802F07837785A281EF
:10027000B38135854485568599249394930E4F5FB9
:100280005F5FF680E084C185D385F6011181A12CE2
:100290000A2D2A2D3A2D3181112788943111380FDA
:1002A00008F43FEF8195889490FC130F179588947C
:1002B00091FC130F1795889492FC130F179588944F
:1002C00093FC130F1795889494FC130F179588943B
:1002D00095FC130F1795889496FC130F1795889427
:1002E00097FC130F17958894032F9110012F860FF9
:1002F000102F002CB5B800C017FF95B9308100272A
:10030000889400C000C0002C95B931113F0D00C089
:10031000002CB5B800C016FF95B908F43FEFF19472
:10032000889400C000C0002C95B940FD030F00C0A8
:10033000002CB5B800C015FF95B90795889441FD0C
:10034000030F00C000C0002C95B90795889400C029
:10035000002CB5B800C014FF95B942FD030F0795F6
:10036000889400C000C0002C95B943FD030F00C065
:10037000002CB5B800C013FF95B90795889444FDCB
:10038000030F00C000C0002C95B90795889400C0E9
:10039000002CB5B800C012FF95B945FD030F0795B5
:1003A000889400C000C0002C95B946FD030F00C022
:1003B000002CB5B800C011FF95B90795889447FD8A
:1003C000030F00C000C0002C95B90795889400C0A9
:1003D000002CB5B800C010FF95B9132F4111102F94
:1003E000FC0E00C000C0002C95B900C000C0002C5D
:1003F000B5B800C017FF95B932810027889400C0B6
:1004000000C0002C95B931113E0D00C0002CB5B8CC
:1004100000C016FF95B908F43FEFE70FF11D00C0CB
:1004200000C0002C95B950FD030F00C0002CB5B8DA
:1004300000C015FF95B90795889451FD030F00C0C2
:1004400000C0002C95B90795889400C0002CB5B861
:1004500000C014FF95B952FD030F0795889400C0A2
:1004600000C0002C95B953FD030F00C0002CB5B897
:1004700000C013FF95B90795889454FD030F00C081
:1004800000C0002C95B90795889400C0002CB5B821
:1004900000C012FF95B955FD030F0795889400C061
:1004A00000C0002C95B956FD030F00C0002CB5B854
:1004B00000C011FF95B90795889457FD030F00C040
:1004C00000C0002C95B90795889400C0002CB5B8E1
:1004D00000C010FF95B9132F5111102FE19400C0E7
:1004E00000C0002C95B9ED0E00C000C0B5B800C02A
:1004F00017FF95B931810027889400C000C0002CF7
:1005000095B93111380F00C0002CB5B800C016FFE6
:1005100095B908F43FEF8195889400C000C0002C85
:1005200095B990FC030F00C0002CB5B800C015FFB2
:1005300095B90795889491FC030F00C000C0002C6A
:1005400095B90795889400C0002CB5B800C014FF79
:1005500095B992FC030F0795889400C000C0002C49
:1005600095B993FC030F00C0002CB5B800C013FF71
:1005700095B90795889494FC030F00C000C0002C27
:1005800095B90795889400C0002CB5B800C012FF3B
:1005900095B995FC030F0795889400C000C0002C06
:1005A00095B996FC030F00C0002CB5B800C011FF30
:1005B00095B90795889497FC030F00C000C0002CE4
:1005C00095B90795889400C0002CB5B800C010FFFD
:1005D00095B9132F9110102F860F00C000C0002C6A
:1005E00095B9119709F086CEC32ED22EA02ECDB785
:1005F000DEB7EBE00C940D0C0F931F93CF93DF93BA
:10060000EC018B010E94D90A2F853889621B730B7C
:100610006A307105B8F3F894C8010E942101D8012D
:100620001296ED91FC91139720EE31E0DF010E94CC
:10063000D80BAB01BC01A4E076956795579547951B
:10064000AA95D1F780E090E09C01AAE9EA9F0E0EFE
:10065000211DFA9F200D311D11242F0F311D420F36
:10066000531F611D711D493EB3E05B0761057105B4
:1006700008F434C0485E53406109710922E0769560
:100680006795579547952A95D1F727E0429F040E25
:10069000811D529F800D911D1124850F911D209168
:1006A000660130E0420F531F480F591F80914902E5
:1006B00090914A02A0914B02B0914C02252F332712
:1006C000820F931FA11DB11D8093490290934A028E
:1006D000A0934B02B0934C024093660178940E9421
:1006E000D90A788B6F87DF91CF911F910F91089571
:1006F000FC01118A108A0895EF92FF920F931F93C5
:10070000CF93DF93EC0190914C019F5F292F2770CD
:1007100020934C0190FF02C090E801C090E021FDC1
:100720009064247009F0906220E1290FFE013C964C
:100730007E018FE0E80EF11C00E011E0619166237C
:1007400031F070E0C8010E94830B6F5F01C060E070
:10075000DF0114976C93322F369F030E30E0311D6A
:100760001124CF010797311103C0EC01188203C097
:100770003150EC013883662311F061506C93EE1513
:10078000FF05E1F6CDB7DEB7E6E00C94120CA2E16E
:10079000B0E0EDECF3E00C94F60B8C017A01F9017A
:1007A000DC011C968C917A8369835C834B835E8326
:1007B0004D8390819D8791819E8792819F87813013
:1007C00029F4CE0101960E947C0306C01C861B867C
:1007D0001A86198618861F82188AB701CE010196DB
:1007E0000E947803D801ED91FC910484F585E02DF9
:1007F000BE016F5F7F4FC80109956296E6E00C94D9
:10080000120CA2E1B0E0E7E0F4E00C94F60B8C01EE
:100810007A01F901DC011C968C917A8369835C83EF
:100820004B835E834D8390819D8791819E879281CA
:100830009F87813029F4CE0101960E947C0306C077
:100840001C861B861A86198618861F8283E0888B71
:10085000B701CE0101960E947803D801ED91FC9179
:100860000484F585E02DBE016F5F7F4FC8010995B7
:100870006296E6E00C94120C08950E9445090895D2
:1008800040E855E260E070E08EE991E00E941108D6
:1008900087E691E00E948900089568E171E08EE9A1
:1008A00091E00E94230987E691E00E94FF006AE13F
:1008B00071E08EE991E00E942309089580E291E0C1
:1008C0009093680180936701089508956AE070E04D
:1008D00080E090E00895CF93DF93EC0124E14E8116
:1008E00068E070E08A819B810E942D068E818E5F78
:1008F0008E83DF91CF91089528E231E0FC013183AE
:100900002083848195810E9445090895CF93DF93C8
:10091000EC010E947C04CE010E944509DF91CF9139
:100920000895FC01738362835583448384E391E0DB
:1009300091838083168208954F925F926F927F9287
:10094000AF92BF92CF92DF92EF92FF920F931F93DD
:10095000CF93DF93FC011082118212824423B9F1FC
:100960008B01075F1F4F5C01EB012C96442E512C2D
:10097000612C712CD8011397CC90D8012D918D0149
:10098000CC20F9F02223E9F0822F90E0A0E0B0E043
:100990009C01AD012F5F3F4F4F4F5F4FC301B2012D
:1009A0000E945F0B9B01AC01D12CE12CF12CC70103
:1009B000B6016F5F7F4F8F4F9F4F0E945F0BD50136
:1009C0008C93BFEFAB1ABB0A0C171D0799F6CF012A
:1009D000DF91CF911F910F91FF90EF90DF90CF901B
:1009E000BF90AF907F906F905F904F900895A0E080
:1009F000B0E0EDEFF4E00C94F40B8C016B01EA0134
:100A00007901121613061CF07A01C0E0D0E0D8017B
:100A1000ED91FC910480F581E02DC8010995BE019E
:100A2000660F771FC60FD71FB6016C0F7D1FF80129
:100A300073836283F686E5860190F081E02D02845F
:100A4000F385E02DC8010995009711F19C0140E064
:100A500050E060E472E48FE090E00E94B90BC09037
:100A60009401D0909501E0909601F0909701C90112
:100A7000DA018C159D05AE05BF0510F4D701C6013E
:100A80008093940190939501A0939601B093970160
:100A9000C801CDB7DEB7E8E00C94100CA0E0B0E0E0
:100AA000E4E5F5E00C94F40B209187013091880186
:100AB000A9014F5F5F4F509388014093870126172C
:100AC0003707B4F1EC010E94CD0A8B019C01E09143
:100AD0008701F091880188EE93E0E89FB001E99FDB
:100AE000700DF89F700D1124072E000C880B990BC8
:100AF000C0908301D0908401E0908501F090860140
:100B0000A90198012C193D094E095F090E94970B14
:100B10003A83298310928801109287010E94CD0A9E
:100B20006093830170938401809385019093860183
:100B3000CDB7DEB7E8E00C94100CA3E0B0E0E3EA38
:100B4000F5E00C94F20B7C01D62EF70183819481A1
:100B5000A581B681892B8A2B8B2BD1F00E94D90AD3
:100B60000091890110918A0120918B0130918C01B3
:100B7000DC01CB01801B910BA20BB30BF7010381AE
:100B800014812581368180179107A207B307E8F207
:100B90000E94D90A6093890170938A0180938B0126
:100BA00090938C01D7011B96ED91FC911C97309787
:100BB00051F0D70117964D915D916D917C911A97E7
:100BC0008D2D0995D82E00918F011091900101155E
:100BD000110551F1F801C484D70111968D919C91B2
:100BE00012978436910508F41486D801ED91FC9192
:100BF000A280B3804D2DB801CE0101960E949C04C5
:100C0000F80145855685628173819E012F5F3F4FB4
:100C1000C801F5010995D8011C96CC921C97149631
:100C20000D911C911597D3CF69E170E0C7010E9427
:100C30004E052396EAE00C940E0CE1E9F1E08FEF0B
:100C4000808312821182148613868FEF9FEFDC015E
:100C500087839087A187B2870895A4E0B0E0E3E39B
:100C6000F6E00C94F40B6B0149833FEF3B8330EFCC
:100C70003A837C0100E010E00C151D0584F4B701F7
:100C8000CE0101962C830E94530689812C81820F0C
:100C900089830F5F1F4F83E0E80EF11CEDCF249690
:100CA000E8E00C94100CDC01FB014C9111965C9176
:100CB000119712967C91342F3F71330F330F832F8E
:100CC000880F35E5282F239F020E20E0211D1124D7
:100CD000642F6074942F907247FD21C061110BC086
:100CE000911104C0822F8095422F11C045E5420F1B
:100CF00030E02BEA33C091110DC0382F4AEA349FFF
:100D0000030E30E0311D11248BEA831B420F282F84
:100D100030E024C080E0422F4095322F0EC0611198
:100D200011C091110CC0382F2AEA329F030E30E017
:100D3000311D11244BEA431B3B5A20E00FC0322FD8
:100D400030950BC0911104C085E5820F3BEA03C0CA
:100D50008AEA820F90E0321B282F40E05F3F11F1BA
:100D60005523E9F0222321F0259F020E20E0211DCA
:100D7000442321F0459F040E40E0411D332321F020
:100D8000359F030E30E0311D11245095559F050EFF
:100D900050E0511D1124250F450F350F03C03FEFC3
:100DA0004FEF2FEF7F3F09F420C050E0772321F071
:100DB000779F512D09F05F5F5523A1F0222321F089
:100DC000259F020E20E0211D442321F0459F040EA3
:100DD00040E0411D332321F0359F030E30E0311DEB
:100DE000112403C030E040E020E0208341833283BF
:100DF0000895FC0124853585F901E05CFF4F808171
:100E00009181329620813181821B930B8F739927B8
:100E10000895DC011C96ED91FC911D97DF01A05C0B
:100E2000BF4F2D913C91119712968D919C911197E6
:100E30002817390739F08D919C91E80FF91F8081AF
:100E400090E008958FEF9FEF0895FC01A485B5858C
:100E5000FD01E05CFF4F20813181329680819181DC
:100E60002817390779F080819181A80FB91F8C91DB
:100E7000208131812F5F3F4F2F73332731832083B0
:100E800090E008958FEF9FEF0895FC0181A18823E2
:100E900029F0A489B5898C9186FFFBCF11A2089512
:100EA0000F931F93CF93DF93FC01A685B7858D0128
:100EB000005C1F4FE8018881998101968F73992703
:100EC000AD014E5B5F4FEA0128813981821793079C
:100ED000D1F3E80128813981A20FB31F6C93A68555
:100EE000B785A05CBF4F11969C938E93A689B78956
:100EF0002C9181E090E0078C02C0880F991F0A9422
:100F0000E2F7822B8C9381E081A30488F589E02DA0
:100F100080818064808381E090E0DF91CF911F9198
:100F20000F91089508951F920F920FB60F921124FA
:100F30002F934F935F938F939F93EF93FF938091A2
:100F4000C00082FD1CC02091C60080914402909197
:100F5000450201968F7399274091460250914702AE
:100F60008417950771F0E0914402F0914502EC5F1F
:100F7000FD4F2083909345028093440202C08091EC
:100F8000C600FF91EF919F918F915F914F912F91AB
:100F90000F900FBE0F901F9018958EE991E00E9460
:100FA000F906892B11F00E94920708951F920F9263
:100FB0000FB60F9211242F933F938F939F93EF932C
:100FC000FF932091000230910102809102029091E2
:100FD00003022817390731F48091C1008F7D809377
:100FE000C10014C0E0910202F0910302E054FE4FF0
:100FF0002081809102029091030201968F739927BC
:1010000090930302809302022093C600FF91EF9118
:101010009F918F913F912F910F900FBE0F901F9036
:101020001895A0E0B0E0E7E1F8E00C94F40BEC01D7
:101030006A017B014115514E6105710511F1EC8981
:10104000FD8981E090E008A002C0880F991F0A94F2
:10105000E2F7808360E079E08DE390E0A7019601FC
:101060000E94970B89019A01015011092109310948
:1010700036952795179507959801011580E1180772
:10108000A8F0EC89FD89108260E874E88EE190E0B8
:10109000A70196010E94970BDA01C9010197A109E6
:1010A000B109B695A795979587959C01E889F98927
:1010B0003083EA89FB89208319A2EE89FF89408168
:1010C00081E090E09C010C8C02C0220F331F0A9437
:1010D000E2F7242B2083EE89FF8940819C010D8C4F
:1010E00002C0220F331F0A94E2F7242B2083EE89DB
:1010F000FF8940819C010E8C02C0220F331F0A948D
:10110000E2F7242B2083EE89FF8920810F8C02C017
:10111000880F991F0A94E2F7809582238083CDB7C8
:10112000DEB7E8E00C94100CEEE9F1E013821282D5
:1011300088EE93E0A0E0B0E084839583A683B78334
:1011400080E491E09183808384E092E095878487B6
:1011500080EC91E09787868785EC90E0918B808B7F
:1011600084EC90E0938B828B80EC90E0958B848B69
:1011700081EC90E0978B868B82EC90E0918F808F52
:1011800086EC90E0938F828F84E0848F83E0858F5C
:1011900087E0868F85E0878F81E080A30895A0E0B7
:1011A000B0E0E5EDF8E00C94F40B6C01EB017B0191
:1011B000E40EF51E00E010E0CE15DF0561F0699148
:1011C000D601ED91FC910190F081E02DC6010995C9
:1011D000080F191FF1CFC801CDB7DEB7E8E00C94B6
:1011E000100C6115710581F0FB0101900020E9F7F9
:1011F0003197AF01461B570BDC01ED91FC9102804A
:10120000F381E02D0995089580E090E00895DC01D8
:10121000ED91FC910190F081E02D099508950F93D7
:101220001F93CF93DF93EC016DE00E9407098C01BF
:101230006AE0CE010E940709800F911FDF91CF91D4
:101240001F910F9108950F931F93CF93DF93EC019C
:101250000E94F1088C01CE010E940F09800F911F9E
:10126000DF91CF911F910F9108950E94240B0E944E
:101270004004CDECD7E00E944D042097E1F30E949A
:10128000CD07F9CF0E94560908950E94EB090895F1
:10129000FC0181E090E02081222311F080E090E0C9
:1012A000089521E0FC01208308950895CF93DF93F2
:1012B0008230910510F482E090E0E0915302F091C9
:1012C000540220E030E0C0E0D0E0309711F14081DE
:1012D000518148175907C0F04817590761F48281B6
:1012E0009381209719F09B838A832BC0909354029B
:1012F0008093530226C02115310519F04217530778
:1013000018F49A01BE01DF01EF010280F381E02DA4
:10131000DCCF2115310509F1281B390B24303105AB
:1013200090F412968D919C9113976115710521F09F
:10133000FB019383828304C09093540280935302F1
:10134000FD01329644C0FD01E20FF31F819391939A
:10135000225031092D933C933AC020915102309193
:101360005202232B41F4209102013091030130936A
:101370005202209351022091000130910101211568
:10138000310541F42DB73EB740910401509105015C
:10139000241B350BE0915102F0915202E217F30742
:1013A000A0F42E1B3F0B2817390778F0AC014E5FD5
:1013B0005F4F2417350748F04E0F5F1F50935202BE
:1013C000409351028193919302C0E0E0F0E0CF019D
:1013D000DF91CF9108950F931F93CF93DF930097E1
:1013E00009F48CC0FC0132971382128200915302DF
:1013F000109154020115110581F420813181820F71
:10140000931F20915102309152022817390779F524
:10141000F0935202E093510271C0D80140E050E0D5
:10142000AE17BF0750F412962D913C911397AD0162
:101430002115310509F1D901F3CF9D01DA0133837B
:10144000228360817181860F971F8217930769F449
:10145000EC0128813981260F371F2E5F3F4F3183E2
:1014600020838A819B8193838283452B29F4F09387
:101470005402E093530242C01396FC93EE931297EA
:10148000ED01499159919E01240F351FE217F30791
:1014900071F480819181840F951F029611969C931F
:1014A0008E938281938113969C938E931297E0E0A2
:1014B000F0E0D80112968D919C911397009719F046
:1014C000F8018C01F6CF8D919C9198012E5F3F4FD2
:1014D000820F931F20915102309152022817390731
:1014E00069F4309729F4109254021092530202C00A
:1014F000138212821093520200935102DF91CF9116
:101500001F910F9108951F920F920FB60F92112401
:101510002F933F938F939F93AF93BF9380914902F3
:1015200090914A02A0914B02B0914C023091480236
:1015300023E0230F2D3720F40196A11DB11D05C016
:1015400026E8230F0296A11DB11D20934802809327
:10155000490290934A02A0934B02B0934C028091AF
:101560004D0290914E02A0914F02B091500201960F
:10157000A11DB11D80934D0290934E02A0934F0286
:10158000B0935002BF91AF919F918F913F912F9156
:101590000F900FBE0F901F9018952FB7F894609181
:1015A000490270914A0280914B0290914C022FBFE8
:1015B00008953FB7F89480914D0290914E02A0910A
:1015C0004F02B091500226B5A89B05C02F3F19F0DD
:1015D0000196A11DB11D3FBFBA2FA92F982F8827B3
:1015E000820F911DA11DB11DBC01CD0142E0660F0E
:1015F000771F881F991F4A95D1F70895CF92DF92E0
:10160000EF92FF92CF93DF936B017C010E94D90A86
:10161000EB01C114D104E104F10479F00E94D90A6C
:101620006C1B7D0B683E7340A0F381E0C81AD108A3
:10163000E108F108C851DC4FECCFDF91CF91FF906A
:10164000EF90DF90CF900895789484B5826084BD48
:1016500084B5816084BD85B5826085BD85B58160B6
:1016600085BDEEE6F0E0808181608083E1E8F0E016
:101670001082808182608083808181608083E0E845
:10168000F0E0808181608083E1EBF0E08081846024
:101690008083E0EBF0E0808181608083EAE7F0E026
:1016A000808184608083808182608083808181608A
:1016B00080838081806880831092C1000895DB015F
:1016C0008F939F930E94DF0BBF91AF91A29F800DDC
:1016D000911DA39F900DB29F900D11240895AA1BF8
:1016E000BB1B51E107C0AA1FBB1FA617B70710F00D
:1016F000A61BB70B881F991F5A95A9F7809590953F
:10170000BC01CD01089597FB072E16F4009407D075
:1017100077FD09D00E946F0B07FC05D03EF4909531
:1017200081959F4F0895709561957F4F0895A1E22F
:101730001A2EAA1BBB1BFD010DC0AA1FBB1FEE1F4B
:10174000FF1FA217B307E407F50720F0A21BB30B96
:10175000E40BF50B661F771F881F991F1A9469F712
:1017600060957095809590959B01AC01BD01CF016E
:101770000895052E97FB1EF400940E94D00B57FD90
:1017800007D00E94970B07FC03D04EF40C94D00BAB
:1017900050954095309521953F4F4F4F5F4F08959D
:1017A00090958095709561957F4F8F4F9F4F0895CD
:1017B0000E94270CB7FF0895821B930B08950E9487
:1017C000270CA59F900DB49F900DA49F800D911D97
:1017D000112408952F923F924F925F926F927F92C1
:1017E0008F929F92AF92BF92CF92DF92EF92FF9231
:1017F0000F931F93CF93DF93CDB7DEB7CA1BDB0BDD
:101800000FB6F894DEBF0FBECDBF09942A88398881
:1018100048885F846E847D848C849B84AA84B98488
:10182000C884DF80EE80FD800C811B81AA81B98194
:10183000CE0FD11D0FB6F894DEBF0FBECDBFED01A8
:101840000895EE0FFF1F0590F491E02D0994A29FDB
:10185000B001B39FC001A39F700D811D1124911D84
:10186000B29F700D811D1124911D089510E0C7E3F2
:10187000D0E004C0FE010E94210C2196C833D1079C
:06188000C9F7F894FFCF48
:1018860000005502800000000000C7030104870025
:10189600660062008400FC02610062000000000035
:1018A6003C043D04000000000000000055095509F5
:1018B600000000007C0486046B046604000000003F
:0C18C6005007CF08F90625070907450761
:00000001FF
