:100000000C9438000C9460000C9460000C94600018
:100010000C9460000C9460000C9460000C946000E0
:100020000C9460000C9460000C9460000C946000D0
:100030000C9460000C9460000C9460000C946000C0
:100040000C94DB090C9460000C94EB060C942E07C6
:100050000C9460000C9460000C9460000C946000A0
:100060000C9460000C946000B8044106EC07BF04D7
:1000700011241FBECFEFD8E0DEBFCDBF11E0A0E05E
:10008000B1E0E6E3F7E102C005900D92A235B107B9
:10009000D9F722E0A2E5B1E001C01D92AB35B2076D
:1000A000E1F710E0C7E3D0E004C02197FE010E9411
:1000B000790BC433D107C9F70E948D080C948E0BBD
:1000C0000C940000DC0120E030E060FD02C090E014
:1000D00001C090E812964D915C911397F901EE0FD3
:1000E000FF1FE20FF31FE40FF51F108291831282AE
:1000F00066952F5F3F4F2830310539F70895CF932C
:10010000DF93EC01EC81FD8188859985E80FF91F6B
:100110006081CE010E946200888599850196998749
:1001200088872E813F818217930710F019861886E1
:10013000DF91CF9108952AE031E0FC0131832083E3
:10014000848195810E949D080895CF93DF93EC01EF
:100150000E949B00CE010E949D08DF91CF910895DF
:10016000FC01738362835583448384E191E091832E
:100170008083DA010D900020E9F71197A41BB50BDD
:10018000B783A683118610860895FC018585968520
:100190000895A6E0B0E0EFECF0E00C943E0BAB016C
:1001A0001C821D821E82DC01ED91FC910190F08188
:1001B000E02D19821A821B829E012F5F3F4FBE01E4
:1001C0006C5F7F4F09952696E2E00C945A0B80E90C
:1001D00091E00895249A0895EF92FF920F931F9350
:1001E000CF93DF93EC017C0182E0E80EF11C80915B
:1001F000640181114DC084E691E00E94A008892B22
:1002000009F446C010925601109255019FEF909349
:10021000590190935A0190935B0190935C019093E4
:100220005D0190935E0181E080935F011092610116
:10023000109260011092580110925701809195011F
:1002400090919601892B31F483E591E0909396018A
:1002500080939501E0919301F0919401309721F002
:1002600083E591E09583848383E591E09093940105
:1002700080939301109263011092620187E291E0F2
:10028000909354018093530184E691E00E94A90861
:1002900020E030E048E050E0B70183E591E00E94C3
:1002A0001B058AE090E00E949A088C014AE151E027
:1002B000B7010E94B0001B8F0A8FCDB7DEB7E6E012
:1002C0000C94560BDC015A968D919C915B97DC0146
:1002D000ED91FC910480F581E02D099560919701E5
:1002E00087E991E00E94C10564EF71E080E090E051
:1002F0000E94560A0895A0E0B0E0E1E8F1E00C9415
:10030000350BFC01C080D18025B12061B22E95B1A2
:100310009F7E95B962858781062F081B802F0783F2
:100320007785A281B3813585448556859924939438
:10033000930E4F5F5F5FF680E084C185D385F60141
:100340001181A12C0A2D2A2D3A2D31811127889453
:100350003111380F08F43FEF8195889490FC130F0A
:100360001795889491FC130F1795889492FC130F9E
:100370001795889493FC130F1795889494FC130F8A
:100380001795889495FC130F1795889496FC130F76
:100390001795889497FC130F17958894032F911045
:1003A000012F860F102F002CB5B800C017FF95B98C
:1003B00030810027889400C000C0002C95B931110D
:1003C0003F0D00C0002CB5B800C016FF95B908F469
:1003D0003FEFF194889400C000C0002C95B940FD17
:1003E000030F00C0002CB5B800C015FF95B90795E4
:1003F000889441FD030F00C000C0002C95B90795FB
:10040000889400C0002CB5B800C014FF95B942FD17
:10041000030F0795889400C000C0002C95B943FDD8
:10042000030F00C0002CB5B800C013FF95B90795A5
:10043000889444FD030F00C000C0002C95B90795B7
:10044000889400C0002CB5B800C012FF95B945FDD6
:10045000030F0795889400C000C0002C95B946FD95
:10046000030F00C0002CB5B800C011FF95B9079567
:10047000889447FD030F00C000C0002C95B9079574
:10048000889400C0002CB5B800C010FF95B9132F98
:100490004111102FFC0E00C000C0002C95B900C007
:1004A00000C0002CB5B800C017FF95B932810027F5
:1004B000889400C000C0002C95B931113E0D00C0D9
:1004C000002CB5B800C016FF95B908F43FEFE70F50
:1004D000F11D00C000C0002C95B950FD030F00C0F5
:1004E000002CB5B800C015FF95B90795889451FD4B
:1004F000030F00C000C0002C95B90795889400C078
:10050000002CB5B800C014FF95B952FD030F079534
:10051000889400C000C0002C95B953FD030F00C0A3
:10052000002CB5B800C013FF95B90795889454FD09
:10053000030F00C000C0002C95B90795889400C037
:10054000002CB5B800C012FF95B955FD030F0795F3
:10055000889400C000C0002C95B956FD030F00C060
:10056000002CB5B800C011FF95B90795889457FDC8
:10057000030F00C000C0002C95B90795889400C0F7
:10058000002CB5B800C010FF95B9132F5111102FD2
:10059000E19400C000C0002C95B9ED0E00C000C071
:1005A000B5B800C017FF95B931810027889400C005
:1005B00000C0002C95B93111380F00C0002CB5B81F
:1005C00000C016FF95B908F43FEF8195889400C0EC
:1005D00000C0002C95B990FC030F00C0002CB5B8EA
:1005E00000C015FF95B90795889491FC030F00C0D2
:1005F00000C0002C95B90795889400C0002CB5B8B0
:1006000000C014FF95B992FC030F0795889400C0B1
:1006100000C0002C95B993FC030F00C0002CB5B8A6
:1006200000C013FF95B90795889494FC030F00C090
:1006300000C0002C95B90795889400C0002CB5B86F
:1006400000C012FF95B995FC030F0795889400C070
:1006500000C0002C95B996FC030F00C0002CB5B863
:1006600000C011FF95B90795889497FC030F00C04F
:1006700000C0002C95B90795889400C0002CB5B82F
:1006800000C010FF95B9132F9110102F860F00C0D6
:1006900000C0002C95B9119709F086CEC32ED22E3A
:1006A000A02ECDB7DEB7EBE00C94510B0F931F9348
:1006B000CF93DF93EC018B010E94310A2F8538899B
:1006C000621B730B6A307105B8F3F894C8010E947D
:1006D0007B01D8011296ED91FC91139720EE31E049
:1006E000DF010E941C0BAB01BC01A4E0769567956D
:1006F00057954795AA95D1F780E090E09C01AAE92B
:10070000EA9F0E0E211DFA9F200D311D11242F0F7F
:10071000311D420F531F611D711D493EB3E05B0740
:100720006105710508F434C0485E534061097109E0
:1007300022E076956795579547952A95D1F727E05A
:10074000429F040E811D529F800D911D1124850F23
:10075000911D20916C0130E0420F531F480F591F2B
:1007600080914F0290915002A0915102B09152029B
:10077000252F3327820F931FA11DB11D80934F0298
:1007800090935002A0935102B093520240936C0197
:1007900078940E94310A788B6F87DF91CF911F91F7
:1007A0000F910895FC01118A108A0895EF92FF922B
:1007B0000F931F93CF93DF93EC01909152019F5FB2
:1007C000292F27702093520190FF02C090E801C0AA
:1007D00090E021FD9064247009F0906220E1290FDF
:1007E000FE013C967E018FE0E80EF11C00E011E076
:1007F0006191662331F070E0C8010E94C70A6F5F03
:1008000001C060E0DF0114976C93322F369F030E16
:1008100030E0311D1124CF010797311103C0EC01E5
:10082000188203C03150EC013883662311F0615007
:100830006C93EE15FF05E1F6CDB7DEB7E6E00C945C
:10084000560BA2E1B0E0E7E2F4E00C943A0B8C0125
:100850007A01F901DC011C968C917A8369835C83AF
:100860004B835E834D8390819D8791819E8792818A
:100870009F87813029F4CE0101960E94D60306C0DD
:100880001C861B861A86198618861F82188AB7014D
:10089000CE0101960E94D203D801ED91FC9104840F
:1008A000F585E02DBE016F5F7F4FC8010995629607
:1008B000E6E00C94560BA2E1B0E0E1E6F4E00C9423
:1008C0003A0B8C017A01F901DC011C968C917A8338
:1008D00069835C834B835E834D8390819D87918187
:1008E0009E8792819F87813029F4CE0101960E94D4
:1008F000D60306C01C861B861A86198618861F8298
:1009000083E0888BB701CE0101960E94D203D80103
:10091000ED91FC910484F585E02DBE016F5F7F4F62
:10092000C80109956296E6E00C94560B08950E9462
:100930009D08089540E855E260E070E084EA91E0A7
:100940000E9469078DE691E00E94EC00089565E33E
:1009500071E084EA91E00E947B088DE691E00E94BC
:10096000620167E371E084EA91E00E947B080895E8
:100970008DE391E090936E0180936D010895089549
:100980004F925F926F927F92AF92BF92CF92DF921F
:10099000EF92FF920F931F93CF93DF93FC0110828E
:1009A000118212824423B9F18B01075F1F4F5C0152
:1009B000EB012C96442E512C612C712CD8011397ED
:1009C000CC90D8012D918D01CC20F9F02223E9F0B3
:1009D000822F90E0A0E0B0E09C01AD012F5F3F4F7F
:1009E0004F4F5F4FC301B2010E94B70A9B01AC0198
:1009F000D12CE12CF12CC701B6016F5F7F4F8F4FD7
:100A00009F4F0E94B70AD5018C93BFEFAB1ABB0A68
:100A10000C171D0799F6CF01DF91CF911F910F9110
:100A2000FF90EF90DF90CF90BF90AF907F906F904E
:100A30005F904F900895A0E0B0E0E1E2F5E00C9403
:100A4000380B8C016B01EA017901121613061CF0B8
:100A50007A01C0E0D0E0D801ED91FC910480F581ED
:100A6000E02DC8010995BE01660F771FC60FD71F7D
:100A7000B6016C0F7D1FF80173836283F686E586ED
:100A80000190F081E02D0284F385E02DC8010995E5
:100A9000009711F19C0140E050E060E472E48FE0C7
:100AA00090E00E94FD0AC0909A01D0909B01E090D6
:100AB0009C01F0909D01C901DA018C159D05AE05E0
:100AC000BF0510F4D701C60180939A0190939B0152
:100AD000A0939C01B0939D01C801CDB7DEB7E8E0BB
:100AE0000C94540BA0E0B0E0E8E7F5E00C94380B70
:100AF00020918D0130918E01A9014F5F5F4F50937E
:100B00008E0140938D0126173707B4F1EC010E9446
:100B1000250A8B019C01E0918D01F0918E0188EEF8
:100B200093E0E89FB001E99F700DF89F700D1124CC
:100B3000072E000C880B990BC0908901D0908A0178
:100B4000E0908B01F0908C01A90198012C193D09CE
:100B50004E095F090E94DB0A3A83298310928E01B5
:100B600010928D010E94250A6093890170938A0179
:100B700080938B0190938C01CDB7DEB7E8E00C94A5
:100B8000540BA3E0B0E0E7ECF5E00C94360B7C01ED
:100B9000D62EF70183819481A581B681892B8A2B7A
:100BA0008B2BD1F00E94310A00918F01109190019E
:100BB0002091910130919201DC01CB01801B910BBE
:100BC000A20BB30BF70103811481258136818017B5
:100BD0009107A207B307E8F20E94310A60938F01E0
:100BE000709390018093910190939201D7011B968D
:100BF000ED91FC911C97309751F0D70117964D91CC
:100C00005D916D917C911A978D2D0995D82E00914B
:100C10009501109196010115110551F1F801C48457
:100C2000D70111968D919C9112978436910508F405
:100C30001486D801ED91FC91A280B3804D2DB801AE
:100C4000CE0101960E94C004F80145855685628157
:100C500073819E012F5F3F4FC801F5010995D801AF
:100C60001C96CC921C9714960D911C911597D3CF7E
:100C700069E170E0C7010E9472052396EAE00C94D6
:100C8000520BE7E9F1E08FEF808312821182148624
:100C900013868FEF9FEFDC0187839087A187B28750
:100CA0000895FC0124853585F901E05CFF4F8081C2
:100CB0009181329620813181821B930B8F7399270A
:100CC0000895DC011C96ED91FC911D97DF01A05C5D
:100CD000BF4F2D913C91119712968D919C91119738
:100CE0002817390739F08D919C91E80FF91F808101
:100CF00090E008958FEF9FEF0895FC01A485B585DE
:100D0000FD01E05CFF4F208131813296808191812D
:100D10002817390779F080819181A80FB91F8C912C
:100D2000208131812F5F3F4F2F7333273183208301
:100D300090E008958FEF9FEF0895FC0181A1882333
:100D400029F0A489B5898C9186FFFBCF11A2089563
:100D50000F931F93CF93DF93FC01A685B7858D0179
:100D6000005C1F4FE8018881998101968F73992754
:100D7000AD014E5B5F4FEA012881398182179307ED
:100D8000D1F3E80128813981A20FB31F6C93A685A6
:100D9000B785A05CBF4F11969C938E93A689B789A7
:100DA0002C9181E090E0078C02C0880F991F0A9473
:100DB000E2F7822B8C9381E081A30488F589E02DF2
:100DC00080818064808381E090E0DF91CF911F91EA
:100DD0000F91089508951F920F920FB60F9211244C
:100DE0002F934F935F938F939F93EF93FF938091F4
:100DF000C00082FD1CC02091C60080914A029091E3
:100E00004B0201968F73992740914C0250914D02ED
:100E10008417950771F0E0914A02F0914B02E65F6A
:100E2000FD4F208390934B0280934A0202C0809131
:100E3000C600FF91EF919F918F915F914F912F91FC
:100E40000F900FBE0F901F90189584EA91E00E94BA
:100E50005106892B11F00E94EA0608951F920F9205
:100E60000FB60F9211242F933F938F939F93EF937D
:100E7000FF93209106023091070280910802909121
:100E800009022817390731F48091C1008F7D8093C2
:100E9000C10014C0E0910802F0910902EA53FE4F2C
:100EA0002081809108029091090201968F73992701
:100EB00090930902809308022093C600FF91EF915E
:100EC0009F918F913F912F910F900FBE0F901F9088
:100ED0001895A0E0B0E0EFE6F7E00C94380BEC01D9
:100EE0006A017B014115514E6105710511F1EC89D3
:100EF000FD8981E090E008A002C0880F991F0A9444
:100F0000E2F7808360E079E08DE390E0A70196014D
:100F10000E94DB0A89019A01015011092109310956
:100F200036952795179507959801011580E11807C3
:100F3000A8F0EC89FD89108260E874E88EE190E009
:100F4000A70196010E94DB0ADA01C9010197A109F4
:100F5000B109B695A795979587959C01E889F98978
:100F60003083EA89FB89208319A2EE89FF894081B9
:100F700081E090E09C010C8C02C0220F331F0A9488
:100F8000E2F7242B2083EE89FF8940819C010D8CA0
:100F900002C0220F331F0A94E2F7242B2083EE892C
:100FA000FF8940819C010E8C02C0220F331F0A94DE
:100FB000E2F7242B2083EE89FF8920810F8C02C069
:100FC000880F991F0A94E2F7809582238083CDB71A
:100FD000DEB7E8E00C94540BE4EAF1E013821282ED
:100FE00088EE93E0A0E0B0E084839583A683B78386
:100FF00085E491E0918380838AE092E095878487FD
:1010000086EC91E09787868785EC90E0918B808BCA
:1010100084EC90E0938B828B80EC90E0958B848BBA
:1010200081EC90E0978B868B82EC90E0918F808FA3
:1010300086EC90E0938F828F84E0848F83E0858FAD
:1010400087E0868F85E0878F81E080A30895A0E008
:10105000B0E0EDE2F8E00C94380B6C01EB017B01A1
:10106000E40EF51E00E010E0CE15DF0561F0699199
:10107000D601ED91FC910190F081E02DC60109951A
:10108000080F191FF1CFC801CDB7DEB7E8E00C9407
:10109000540B6115710581F0FB0101900020E9F707
:1010A0003197AF01461B570BDC01ED91FC9102809B
:1010B000F381E02D0995089580E090E00895DC012A
:1010C000ED91FC910190F081E02D099508950F9329
:1010D0001F93CF93DF93EC016DE00E945F088C01BA
:1010E0006AE0CE010E945F08800F911FDF91CF91CF
:1010F0001F910F9108950F931F93CF93DF93EC01EE
:101100000E9449088C01CE010E946708800F911F40
:10111000DF91CF911F910F9108950E947C0A0E9448
:101120009A04C5E2D7E00E94A7042097E1F30E9449
:101130002507F9CF0E94AE0808950E94430908953B
:10114000FC0181E090E02081222311F080E090E01A
:10115000089521E0FC01208308950895CF93DF9343
:101160008230910510F482E090E0E0915902F09114
:101170005A0220E030E0C0E0D0E0309711F1408129
:10118000518148175907C0F04817590761F4828107
:101190009381209719F09B838A832BC090935A02E6
:1011A0008093590226C02115310519F042175307C3
:1011B00018F49A01BE01DF01EF010280F381E02DF6
:1011C000DCCF2115310509F1281B390B24303105FD
:1011D00090F412968D919C9113976115710521F0F1
:1011E000FB019383828304C090935A028093590237
:1011F000FD01329644C0FD01E20FF31F81939193EC
:10120000225031092D933C933AC0209157023091DE
:101210005802232B41F420910201309103013093B5
:1012200058022093570220910001309101012115AD
:10123000310541F42DB73EB74091040150910501AD
:10124000241B350BE0915702F0915802E217F30787
:10125000A0F42E1B3F0B2817390778F0AC014E5F26
:101260005F4F2417350748F04E0F5F1F5093580209
:10127000409357028193919302C0E0E0F0E0CF01E8
:10128000DF91CF9108950F931F93CF93DF93009732
:1012900009F48CC0FC01329713821282009159022A
:1012A00010915A020115110581F420813181820FBC
:1012B000931F20915702309158022817390779F56A
:1012C000F0935802E093570271C0D80140E050E01B
:1012D000AE17BF0750F412962D913C911397AD01B4
:1012E0002115310509F1D901F3CF9D01DA013383CD
:1012F000228360817181860F971F8217930769F49B
:10130000EC0128813981260F371F2E5F3F4F318333
:1013100020838A819B8193838283452B29F4F093D8
:101320005A02E093590242C01396FC93EE9312972F
:10133000ED01499159919E01240F351FE217F307E2
:1013400071F480819181840F951F029611969C9370
:101350008E938281938113969C938E931297E0E0F3
:10136000F0E0D80112968D919C911397009719F097
:10137000F8018C01F6CF8D919C9198012E5F3F4F23
:10138000820F931F20915702309158022817390776
:1013900069F4309729F410925A021092590202C04F
:1013A000138212821093580200935702DF91CF915B
:1013B0001F910F9108951F920F920FB60F92112453
:1013C0002F933F938F939F93AF93BF9380914F023F
:1013D00090915002A0915102B091520230914E0270
:1013E00023E0230F2D3720F40196A11DB11D05C068
:1013F00026E8230F0296A11DB11D20934E02809373
:101400004F0290935002A0935102B09352028091E8
:10141000530290915402A0915502B0915602019648
:10142000A11DB11D8093530290935402A0935502C5
:10143000B0935602BF91AF919F918F913F912F91A1
:101440000F900FBE0F901F9018952FB7F8946091D2
:101450004F027091500280915102909152022FBF21
:1014600008953FB7F8948091530290915402A0914F
:101470005502B091560226B5A89B05C02F3F19F022
:101480000196A11DB11D3FBFBA2FA92F982F882704
:10149000820F911DA11DB11DBC01CD0142E0660F5F
:1014A000771F881F991F4A95D1F70895CF92DF9231
:1014B000EF92FF92CF93DF936B017C010E94310A80
:1014C000EB01C114D104E104F10479F00E94310A66
:1014D0006C1B7D0B683E7340A0F381E0C81AD108F5
:1014E000E108F108C851DC4FECCFDF91CF91FF90BC
:1014F000EF90DF90CF900895789484B5826084BD9A
:1015000084B5816084BD85B5826085BD85B5816007
:1015100085BDEEE6F0E0808181608083E1E8F0E067
:101520001082808182608083808181608083E0E896
:10153000F0E0808181608083E1EBF0E08081846075
:101540008083E0EBF0E0808181608083EAE7F0E077
:1015500080818460808380818260808380818160DB
:1015600080838081806880831092C1000895DB01B0
:101570008F939F930E94230BBF91AF91A29F800DE9
:10158000911DA39F900DB29F900D1124089597FB7C
:10159000072E16F4009407D077FD09D00E94650B42
:1015A00007FC05D03EF4909581959F4F0895709566
:1015B00061957F4F0895A1E21A2EAA1BBB1BFD0166
:1015C0000DC0AA1FBB1FEE1FFF1FA217B307E40722
:1015D000F50720F0A21BB30BE40BF50B661F771F7A
:1015E000881F991F1A9469F760957095809590955A
:1015F0009B01AC01BD01CF010895052E97FB1EF4A0
:1016000000940E94140B57FD07D00E94DB0A07FCD0
:1016100003D04EF40C94140B5095409530952195C1
:101620003F4F4F4F5F4F089590958095709561950E
:101630007F4F8F4F9F4F08950E947F0BB7FF0895F4
:10164000821B930B08950E947F0BA59F900DB49F62
:10165000900DA49F800D911D112408952F923F920B
:101660004F925F926F927F928F929F92AF92BF92B2
:10167000CF92DF92EF92FF920F931F93CF93DF935E
:10168000CDB7DEB7CA1BDB0B0FB6F894DEBF0FBEBB
:10169000CDBF09942A88398848885F846E847D8408
:1016A0008C849B84AA84B984C884DF80EE80FD800A
:1016B0000C811B81AA81B981CE0FD11D0FB6F89480
:1016C000DEBF0FBECDBFED010895AA1BBB1B51E1CC
:1016D00007C0AA1FBB1FA617B70710F0A61BB70BA2
:1016E000881F991F5A95A9F780959095BC01CD0147
:1016F0000895EE0FFF1F0590F491E02D0994A29F2D
:10170000B001B39FC001A39F700D811D1124911DD5
:10171000B29F700D811D1124911D089510E0C7E343
:10172000D0E004C0FE010E94790B2196C833D10796
:06173000C9F7F894FFCF99
:1017360000005B0280000000000000000000AD0811
:10174600000000009B00A5007F0048656C70204DDE
:101756006521000000000021045B04EA00C900C501
:1017660000E700560361006200000000009604973F
:101776000400000000A806270851067D0661069DA4
:0217860006005B
:00000001FF
